{"abi":[{"type":"constructor","inputs":[{"name":"_vrfCoordinator","type":"address","internalType":"address"},{"name":"keyHash","type":"bytes32","internalType":"bytes32"},{"name":"subscriptionId","type":"uint64","internalType":"uint64"},{"name":"_FEE","type":"uint256","internalType":"uint256"},{"name":"startTime","type":"uint256","internalType":"uint256"},{"name":"announceTime","type":"uint256","internalType":"uint256"},{"name":"interval","type":"uint256","internalType":"uint256"}],"stateMutability":"nonpayable"},{"type":"function","name":"announceWinners","inputs":[],"outputs":[],"stateMutability":"nonpayable"},{"type":"function","name":"checkUpkeep","inputs":[{"name":"","type":"bytes","internalType":"bytes"}],"outputs":[{"name":"upKeepNeeded","type":"bool","internalType":"bool"},{"name":"returnInfo","type":"bytes","internalType":"bytes"}],"stateMutability":"view"},{"type":"function","name":"enterGame","inputs":[{"name":"guessForRound1","type":"uint256","internalType":"uint256"}],"outputs":[],"stateMutability":"payable"},{"type":"function","name":"enteredGame","inputs":[{"name":"","type":"address","internalType":"address"}],"outputs":[{"name":"","type":"bool","internalType":"bool"}],"stateMutability":"view"},{"type":"function","name":"getCroupier","inputs":[],"outputs":[{"name":"","type":"address","internalType":"address"}],"stateMutability":"view"},{"type":"function","name":"getGuess","inputs":[{"name":"player","type":"address","internalType":"address"},{"name":"round","type":"uint8","internalType":"uint8"}],"outputs":[{"name":"","type":"uint256","internalType":"uint256"}],"stateMutability":"view"},{"type":"function","name":"getInterval","inputs":[],"outputs":[{"name":"","type":"uint256","internalType":"uint256"}],"stateMutability":"view"},{"type":"function","name":"getPlayersListOfRound","inputs":[{"name":"round","type":"uint8","internalType":"uint8"}],"outputs":[{"name":"","type":"address[]","internalType":"address payable[]"}],"stateMutability":"view"},{"type":"function","name":"i_announceTime","inputs":[],"outputs":[{"name":"","type":"uint256","internalType":"uint256"}],"stateMutability":"view"},{"type":"function","name":"i_croupier","inputs":[],"outputs":[{"name":"","type":"address","internalType":"address"}],"stateMutability":"view"},{"type":"function","name":"i_startTime","inputs":[],"outputs":[{"name":"","type":"uint256","internalType":"uint256"}],"stateMutability":"view"},{"type":"function","name":"moneyPoolForRound","inputs":[{"name":"","type":"uint8","internalType":"uint8"}],"outputs":[{"name":"","type":"uint256","internalType":"uint256"}],"stateMutability":"view"},{"type":"function","name":"performUpkeep","inputs":[{"name":"returnInfo","type":"bytes","internalType":"bytes"}],"outputs":[],"stateMutability":"nonpayable"},{"type":"function","name":"rawFulfillRandomWords","inputs":[{"name":"requestId","type":"uint256","internalType":"uint256"},{"name":"randomWords","type":"uint256[]","internalType":"uint256[]"}],"outputs":[],"stateMutability":"nonpayable"},{"type":"function","name":"requestIdForRound","inputs":[{"name":"","type":"uint256","internalType":"uint256"}],"outputs":[{"name":"","type":"uint8","internalType":"uint8"}],"stateMutability":"view"},{"type":"function","name":"s_roundStarted","inputs":[{"name":"","type":"uint8","internalType":"uint8"}],"outputs":[{"name":"","type":"bool","internalType":"bool"}],"stateMutability":"view"},{"type":"function","name":"secretNumberIsReady","inputs":[{"name":"","type":"uint256","internalType":"uint256"}],"outputs":[{"name":"","type":"bool","internalType":"bool"}],"stateMutability":"view"},{"type":"function","name":"startRound","inputs":[{"name":"roundNumber","type":"uint8","internalType":"uint8"}],"outputs":[],"stateMutability":"nonpayable"},{"type":"function","name":"submitGuess","inputs":[{"name":"roundNumber","type":"uint8","internalType":"uint8"},{"name":"guess","type":"uint256","internalType":"uint256"}],"outputs":[],"stateMutability":"payable"},{"type":"function","name":"winnersForRound","inputs":[{"name":"","type":"uint8","internalType":"uint8"},{"name":"","type":"uint256","internalType":"uint256"}],"outputs":[{"name":"","type":"address","internalType":"address"}],"stateMutability":"view"},{"type":"event","name":"NewRoundStarted","inputs":[{"name":"roundNumber","type":"uint256","indexed":false,"internalType":"uint256"},{"name":"remainingTime","type":"uint256","indexed":false,"internalType":"uint256"}],"anonymous":false},{"type":"event","name":"NewRoundStartingIn","inputs":[{"name":"roundNumber","type":"uint256","indexed":false,"internalType":"uint256"},{"name":"timeInterval","type":"uint256","indexed":false,"internalType":"uint256"}],"anonymous":false},{"type":"event","name":"PlayerEntered","inputs":[{"name":"player","type":"address","indexed":true,"internalType":"address"},{"name":"time","type":"uint256","indexed":false,"internalType":"uint256"}],"anonymous":false},{"type":"event","name":"PlayerProposedGuess","inputs":[{"name":"player","type":"address","indexed":true,"internalType":"address"},{"name":"guess","type":"uint256","indexed":false,"internalType":"uint256"},{"name":"roundNumber","type":"uint256","indexed":false,"internalType":"uint256"}],"anonymous":false},{"type":"event","name":"RequestFulfilled","inputs":[{"name":"round","type":"uint256","indexed":false,"internalType":"uint256"}],"anonymous":false},{"type":"event","name":"RequestedRandomness","inputs":[{"name":"requestId","type":"uint256","indexed":false,"internalType":"uint256"}],"anonymous":false},{"type":"event","name":"WinnerRewarded","inputs":[{"name":"roundNumber","type":"uint8","indexed":false,"internalType":"uint8"},{"name":"winners","type":"address[]","indexed":false,"internalType":"address[]"},{"name":"reward","type":"uint256","indexed":false,"internalType":"uint256"}],"anonymous":false},{"type":"event","name":"WinnersListed","inputs":[{"name":"roundNumber","type":"uint8","indexed":false,"internalType":"uint8"},{"name":"winners","type":"address[]","indexed":false,"internalType":"address[]"}],"anonymous":false},{"type":"error","name":"AlreadyInGame","inputs":[]},{"type":"error","name":"AlreadyPooledMoney","inputs":[]},{"type":"error","name":"FeeNotPaid","inputs":[]},{"type":"error","name":"GuessingWindowNotClosed","inputs":[]},{"type":"error","name":"InvalidProposal","inputs":[]},{"type":"error","name":"MustEnterGameFirst","inputs":[]},{"type":"error","name":"NoSuchRound","inputs":[]},{"type":"error","name":"OnlyCoordinatorCanFulfill","inputs":[{"name":"have","type":"address","internalType":"address"},{"name":"want","type":"address","internalType":"address"}]},{"type":"error","name":"OnlyCroupierCanCall","inputs":[]},{"type":"error","name":"OutOfTimeBound","inputs":[]},{"type":"error","name":"PoolingWindowClosed","inputs":[]},{"type":"error","name":"RewardingFailed","inputs":[]},{"type":"error","name":"RoundHasBegun","inputs":[]},{"type":"error","name":"TooEarlyToAnnounce","inputs":[]},{"type":"error","name":"WindowClosed","inputs":[]}],"bytecode":{"object":"0x610180604052348015610010575f5ffd5b50604051612bfe380380612bfe83398181016040528101906100329190610231565b868073ffffffffffffffffffffffffffffffffffffffff1660808173ffffffffffffffffffffffffffffffffffffffff1681525050503373ffffffffffffffffffffffffffffffffffffffff1660a08173ffffffffffffffffffffffffffffffffffffffff16815250508561014081815250508467ffffffffffffffff166101608167ffffffffffffffff16815250508660025f6101000a81548173ffffffffffffffffffffffffffffffffffffffff021916908373ffffffffffffffffffffffffffffffffffffffff1602179055508360c081815250508261010081815250508161012081815250508060e08181525050505050505050506102ce565b5f5ffd5b5f73ffffffffffffffffffffffffffffffffffffffff82169050919050565b5f61015d82610134565b9050919050565b61016d81610153565b8114610177575f5ffd5b50565b5f8151905061018881610164565b92915050565b5f819050919050565b6101a08161018e565b81146101aa575f5ffd5b50565b5f815190506101bb81610197565b92915050565b5f67ffffffffffffffff82169050919050565b6101dd816101c1565b81146101e7575f5ffd5b50565b5f815190506101f8816101d4565b92915050565b5f819050919050565b610210816101fe565b811461021a575f5ffd5b50565b5f8151905061022b81610207565b92915050565b5f5f5f5f5f5f5f60e0888a03121561024c5761024b610130565b5b5f6102598a828b0161017a565b975050602061026a8a828b016101ad565b965050604061027b8a828b016101ea565b955050606061028c8a828b0161021d565b945050608061029d8a828b0161021d565b93505060a06102ae8a828b0161021d565b92505060c06102bf8a828b0161021d565b91505092959891949750929550565b60805160a05160c05160e0516101005161012051610140516101605161287361038b5f395f61184901525f61182801525f8181611041015261112e01525f81816106190152818161080f01528181610a3e01528181610d15015261172c01525f8181610ce601528181610e7d01528181610ed60152818161106601526116fd01525f81816105b601526109e501525f818161093b015281816110a901528181611606015261162c01525f8181610833015261088701526128735ff3fe60806040526004361061011e575f3560e01c80636e04ff0d1161009f578063a7e7d01911610063578063a7e7d019146103f7578063aae59cf614610433578063aebcad8714610449578063b790471b14610473578063f1905c6f1461049b5761011e565b80636e04ff0d146102ee578063706867651461032b578063765590d8146103675780637bf92204146103a357806391ad27b4146103cd5761011e565b806343d6582b116100e657806343d6582b146101f65780634585e33b146102125780635d4453ba1461023a57806361a2b4431461027657806362885f1c146102b25761011e565b806309a17f8a1461012257806316bc89771461013e5780631fe543e3146101685780632e4c3bb214610190578063365f2e20146101cc575b5f5ffd5b61013c60048036038101906101379190611bcd565b6104d7565b005b348015610149575f5ffd5b5061015261080d565b60405161015f9190611c1a565b60405180910390f35b348015610173575f5ffd5b5061018e60048036038101906101899190611d83565b610831565b005b34801561019b575f5ffd5b506101b660048036038101906101b19190611bcd565b6108f1565b6040516101c39190611e1c565b60405180910390f35b3480156101d7575f5ffd5b506101e0610939565b6040516101ed9190611e1c565b60405180910390f35b610210600480360381019061020b9190611e35565b61095d565b005b34801561021d575f5ffd5b5061023860048036038101906102339190611eb9565b610cd2565b005b348015610245575f5ffd5b50610260600480360381019061025b9190611f2e565b610d95565b60405161026d9190611c1a565b60405180910390f35b348015610281575f5ffd5b5061029c60048036038101906102979190611e35565b610e3d565b6040516102a99190611f86565b60405180910390f35b3480156102bd575f5ffd5b506102d860048036038101906102d39190611e35565b610e5a565b6040516102e59190611fae565b60405180910390f35b3480156102f9575f5ffd5b50610314600480360381019061030f9190611eb9565b610e77565b604051610322929190612027565b60405180910390f35b348015610336575f5ffd5b50610351600480360381019061034c9190612055565b610f3c565b60405161035e9190612148565b60405180910390f35b348015610372575f5ffd5b5061038d60048036038101906103889190612055565b61102a565b60405161039a9190611c1a565b60405180910390f35b3480156103ae575f5ffd5b506103b761103f565b6040516103c49190611c1a565b60405180910390f35b3480156103d8575f5ffd5b506103e1611063565b6040516103ee9190611c1a565b60405180910390f35b348015610402575f5ffd5b5061041d60048036038101906104189190612168565b61108a565b60405161042a9190611f86565b60405180910390f35b34801561043e575f5ffd5b506104476110a7565b005b348015610454575f5ffd5b5061045d611603565b60405161046a9190611e1c565b60405180910390f35b34801561047e575f5ffd5b5061049960048036038101906104949190612055565b61162a565b005b3480156104a6575f5ffd5b506104c160048036038101906104bc9190612055565b61192e565b6040516104ce9190611f86565b60405180910390f35b600b5f3373ffffffffffffffffffffffffffffffffffffffff1673ffffffffffffffffffffffffffffffffffffffff1681526020019081526020015f205f9054906101000a900460ff16610557576040517f17c4e19800000000000000000000000000000000000000000000000000000000815260040160405180910390fd5b60018260ff1611801561056e575060068260ff1611155b6105a4576040517f5d057c1d00000000000000000000000000000000000000000000000000000000815260040160405180910390fd5b6001826105b191906121c0565b60ff167f00000000000000000000000000000000000000000000000000000000000000006105df91906121f4565b3414610617576040517f0590fdf300000000000000000000000000000000000000000000000000000000815260040160405180910390fd5b7f00000000000000000000000000000000000000000000000000000000000000004210610670576040517f2f23cfcd00000000000000000000000000000000000000000000000000000000815260040160405180910390fd5b5f8111801561068a575081600a6106879190612364565b81105b6106c0576040517fee03280800000000000000000000000000000000000000000000000000000000815260040160405180910390fd5b80600a5f3373ffffffffffffffffffffffffffffffffffffffff1673ffffffffffffffffffffffffffffffffffffffff1681526020019081526020015f205f8460ff1660ff1681526020019081526020015f20819055503460075f8460ff1660ff1681526020019081526020015f205f82825461073d91906123ae565b9250508190555060035f8360ff1660ff1681526020019081526020015f2033908060018154018082558091505060019003905f5260205f20015f9091909190916101000a81548173ffffffffffffffffffffffffffffffffffffffff021916908373ffffffffffffffffffffffffffffffffffffffff1602179055503373ffffffffffffffffffffffffffffffffffffffff167f6177d10a984d14a62f4ae70b55126d8ee483d28c334491d318d83740f4c95bc3828460405161080192919061241a565b60405180910390a25050565b7f000000000000000000000000000000000000000000000000000000000000000081565b7f000000000000000000000000000000000000000000000000000000000000000073ffffffffffffffffffffffffffffffffffffffff163373ffffffffffffffffffffffffffffffffffffffff16146108e357337f00000000000000000000000000000000000000000000000000000000000000006040517f1cf993f40000000000000000000000000000000000000000000000000000000081526004016108da929190612441565b60405180910390fd5b6108ed828261194b565b5050565b6008602052815f5260405f20818154811061090a575f80fd5b905f5260205f20015f915091509054906101000a900473ffffffffffffffffffffffffffffffffffffffff1681565b7f000000000000000000000000000000000000000000000000000000000000000081565b5f1515600b5f3373ffffffffffffffffffffffffffffffffffffffff1673ffffffffffffffffffffffffffffffffffffffff1681526020019081526020015f205f9054906101000a900460ff161515146109e3576040517fc56fb25300000000000000000000000000000000000000000000000000000000815260040160405180910390fd5b7f00000000000000000000000000000000000000000000000000000000000000003414610a3c576040517f0590fdf300000000000000000000000000000000000000000000000000000000815260040160405180910390fd5b7f00000000000000000000000000000000000000000000000000000000000000004210610a95576040517f2f23cfcd00000000000000000000000000000000000000000000000000000000815260040160405180910390fd5b5f81118015610aa45750600a81105b610ada576040517fee03280800000000000000000000000000000000000000000000000000000000815260040160405180910390fd5b80600a5f3373ffffffffffffffffffffffffffffffffffffffff1673ffffffffffffffffffffffffffffffffffffffff1681526020019081526020015f205f600160ff1681526020019081526020015f20819055506001600b5f3373ffffffffffffffffffffffffffffffffffffffff1673ffffffffffffffffffffffffffffffffffffffff1681526020019081526020015f205f6101000a81548160ff0219169083151502179055505f33908060018154018082558091505060019003905f5260205f20015f9091909190916101000a81548173ffffffffffffffffffffffffffffffffffffffff021916908373ffffffffffffffffffffffffffffffffffffffff16021790555060035f600160ff1681526020019081526020015f2033908060018154018082558091505060019003905f5260205f20015f9091909190916101000a81548173ffffffffffffffffffffffffffffffffffffffff021916908373ffffffffffffffffffffffffffffffffffffffff1602179055503460075f600160ff1681526020019081526020015f205f828254610c7a91906123ae565b925050819055503373ffffffffffffffffffffffffffffffffffffffff167fc16481c9484122696a660b57df0bf6839645c6b620cb1704ac2437de13be922542604051610cc79190611c1a565b60405180910390a250565b5f8282810190610ce29190612055565b90507f00000000000000000000000000000000000000000000000000000000000000008160ff16610d1391906121f4565b7f0000000000000000000000000000000000000000000000000000000000000000610d3e91906123ae565b421015610d80576040517f08c379a0000000000000000000000000000000000000000000000000000000008152600401610d77906124c2565b60405180910390fd5b42600181905550610d908161162a565b505050565b5f5f8260ff16118015610dac575060068260ff1611155b610de2576040517f5d057c1d00000000000000000000000000000000000000000000000000000000815260040160405180910390fd5b600a5f8473ffffffffffffffffffffffffffffffffffffffff1673ffffffffffffffffffffffffffffffffffffffff1681526020019081526020015f205f8360ff1660ff1681526020019081526020015f2054905092915050565b6005602052805f5260405f205f915054906101000a900460ff1681565b6009602052805f5260405f205f915054906101000a900460ff1681565b5f60605f7f000000000000000000000000000000000000000000000000000000000000000060015442610eaa91906124e0565b101590505f5f471190505f5f5f80549050119050828015610ec85750815b8015610ed15750805b94505f7f000000000000000000000000000000000000000000000000000000000000000060015442610f0391906124e0565b610f0d9190612540565b905080604051602001610f209190611fae565b6040516020818303038152906040529450505050509250929050565b60605f8260ff16118015610f54575060068260ff1611155b610f8a576040517f5d057c1d00000000000000000000000000000000000000000000000000000000815260040160405180910390fd5b60035f8360ff1660ff1681526020019081526020015f2080548060200260200160405190810160405280929190818152602001828054801561101e57602002820191905f5260205f20905b815f9054906101000a900473ffffffffffffffffffffffffffffffffffffffff1673ffffffffffffffffffffffffffffffffffffffff1681526020019060010190808311610fd5575b50505050509050919050565b6007602052805f5260405f205f915090505481565b7f000000000000000000000000000000000000000000000000000000000000000081565b5f7f0000000000000000000000000000000000000000000000000000000000000000905090565b600b602052805f5260405f205f915054906101000a900460ff1681565b7f000000000000000000000000000000000000000000000000000000000000000073ffffffffffffffffffffffffffffffffffffffff163373ffffffffffffffffffffffffffffffffffffffff161461112c576040517f432a579500000000000000000000000000000000000000000000000000000000815260040160405180910390fd5b7f0000000000000000000000000000000000000000000000000000000000000000421015611186576040517f16d69d8700000000000000000000000000000000000000000000000000000000815260040160405180910390fd5b5f600190505b60068160ff1611611600575f5f90505f7fffffffffffffffffffffffffffffffffffffffffffffffffffffffffffffffff90505f5f90505b5f805490508110156113385760045f8560ff1681526020019081526020015f2054600a5f5f84815481106111fb576111fa612570565b5b905f5260205f20015f9054906101000a900473ffffffffffffffffffffffffffffffffffffffff1673ffffffffffffffffffffffffffffffffffffffff1673ffffffffffffffffffffffffffffffffffffffff1681526020019081526020015f205f8660ff1660ff1681526020019081526020015f20540361132b576001925060085f8560ff1660ff1681526020019081526020015f205f82815481106112a5576112a4612570565b5b905f5260205f20015f9054906101000a900473ffffffffffffffffffffffffffffffffffffffff16908060018154018082558091505060019003905f5260205f20015f9091909190916101000a81548173ffffffffffffffffffffffffffffffffffffffff021916908373ffffffffffffffffffffffffffffffffffffffff1602179055505b80806001019150506111c4565b508161159c575f5f90505b5f80549050811015611416575f6113fa600a5f5f858154811061136957611368612570565b5b905f5260205f20015f9054906101000a900473ffffffffffffffffffffffffffffffffffffffff1673ffffffffffffffffffffffffffffffffffffffff1673ffffffffffffffffffffffffffffffffffffffff1681526020019081526020015f205f8760ff1660ff1681526020019081526020015f205460045f8860ff1681526020019081526020015f2054611a83565b905082811015611408578092505b508080600101915050611343565b505f5f90505b5f8054905081101561159a575f6114d3600a5f5f858154811061144257611441612570565b5b905f5260205f20015f9054906101000a900473ffffffffffffffffffffffffffffffffffffffff1673ffffffffffffffffffffffffffffffffffffffff1673ffffffffffffffffffffffffffffffffffffffff1681526020019081526020015f205f8760ff1660ff1681526020019081526020015f205460045f8860ff1681526020019081526020015f2054611a83565b905082810361158c5760085f8660ff1660ff1681526020019081526020015f205f838154811061150657611505612570565b5b905f5260205f20015f9054906101000a900473ffffffffffffffffffffffffffffffffffffffff16908060018154018082558091505060019003905f5260205f20015f9091909190916101000a81548173ffffffffffffffffffffffffffffffffffffffff021916908373ffffffffffffffffffffffffffffffffffffffff1602179055505b50808060010191505061141c565b505b7ffdfec8a02781117aabb115da538b3e0a066a4b319eb64240620d7fbf7d477b9c8360085f8660ff1660ff1681526020019081526020015f206040516115e39291906126b3565b60405180910390a1505080806115f8906126e1565b91505061118c565b50565b5f7f0000000000000000000000000000000000000000000000000000000000000000905090565b7f000000000000000000000000000000000000000000000000000000000000000073ffffffffffffffffffffffffffffffffffffffff163373ffffffffffffffffffffffffffffffffffffffff16146116af576040517f432a579500000000000000000000000000000000000000000000000000000000815260040160405180910390fd5b5f8160ff161180156116c5575060068160ff1611155b6116fb576040517f5d057c1d00000000000000000000000000000000000000000000000000000000815260040160405180910390fd5b7f00000000000000000000000000000000000000000000000000000000000000008160ff1661172a91906121f4565b7f000000000000000000000000000000000000000000000000000000000000000061175591906123ae565b421461178d576040517fd1c5afe900000000000000000000000000000000000000000000000000000000815260040160405180910390fd5b60065f8260ff1660ff1681526020019081526020015f205f9054906101000a900460ff16156117e8576040517f4e313dde00000000000000000000000000000000000000000000000000000000815260040160405180910390fd5b5f60025f9054906101000a900473ffffffffffffffffffffffffffffffffffffffff1673ffffffffffffffffffffffffffffffffffffffff16635d3b1d307f00000000000000000000000000000000000000000000000000000000000000007f00000000000000000000000000000000000000000000000000000000000000006003620186a060016040518663ffffffff1660e01b815260040161189095949392919061277d565b6020604051808303815f875af11580156118ac573d5f5f3e3d5ffd5b505050506040513d601f19601f820116820180604052508101906118d091906127e2565b90508160095f8381526020019081526020015f205f6101000a81548160ff021916908360ff160217905550600160065f8460ff1660ff1681526020019081526020015f205f6101000a81548160ff0219169083151502179055505050565b6006602052805f5260405f205f915054906101000a900460ff1681565b5f5f600190505b60068160ff1611611a7d575f81600a61196b9190612364565b90506001818560018561197e91906121c0565b60ff168151811061199257611991612570565b5b60200260200101516119a4919061280d565b6119ae91906123ae565b92508260045f8460ff1681526020019081526020015f2081905550600160055f8460ff1681526020019081526020015f205f6101000a81548160ff0219169083151502179055505f67ffffffffffffffff811115611a0f57611a0e611c47565b5b604051908082528060200260200182016040528015611a3d5781602001602082028036833780820191505090505b5060035f8460ff1660ff1681526020019081526020015f209080519060200190611a68929190611ab1565b50508080611a75906126e1565b915050611952565b50505050565b5f818311611a9c578282611a9791906124e0565b611aa9565b8183611aa891906124e0565b5b905092915050565b828054828255905f5260205f20908101928215611b27579160200282015b82811115611b26578251825f6101000a81548173ffffffffffffffffffffffffffffffffffffffff021916908373ffffffffffffffffffffffffffffffffffffffff16021790555091602001919060010190611acf565b5b509050611b349190611b38565b5090565b5b80821115611b4f575f815f905550600101611b39565b5090565b5f604051905090565b5f5ffd5b5f5ffd5b5f60ff82169050919050565b611b7981611b64565b8114611b83575f5ffd5b50565b5f81359050611b9481611b70565b92915050565b5f819050919050565b611bac81611b9a565b8114611bb6575f5ffd5b50565b5f81359050611bc781611ba3565b92915050565b5f5f60408385031215611be357611be2611b5c565b5b5f611bf085828601611b86565b9250506020611c0185828601611bb9565b9150509250929050565b611c1481611b9a565b82525050565b5f602082019050611c2d5f830184611c0b565b92915050565b5f5ffd5b5f601f19601f8301169050919050565b7f4e487b71000000000000000000000000000000000000000000000000000000005f52604160045260245ffd5b611c7d82611c37565b810181811067ffffffffffffffff82111715611c9c57611c9b611c47565b5b80604052505050565b5f611cae611b53565b9050611cba8282611c74565b919050565b5f67ffffffffffffffff821115611cd957611cd8611c47565b5b602082029050602081019050919050565b5f5ffd5b5f611d00611cfb84611cbf565b611ca5565b90508083825260208201905060208402830185811115611d2357611d22611cea565b5b835b81811015611d4c5780611d388882611bb9565b845260208401935050602081019050611d25565b5050509392505050565b5f82601f830112611d6a57611d69611c33565b5b8135611d7a848260208601611cee565b91505092915050565b5f5f60408385031215611d9957611d98611b5c565b5b5f611da685828601611bb9565b925050602083013567ffffffffffffffff811115611dc757611dc6611b60565b5b611dd385828601611d56565b9150509250929050565b5f73ffffffffffffffffffffffffffffffffffffffff82169050919050565b5f611e0682611ddd565b9050919050565b611e1681611dfc565b82525050565b5f602082019050611e2f5f830184611e0d565b92915050565b5f60208284031215611e4a57611e49611b5c565b5b5f611e5784828501611bb9565b91505092915050565b5f5ffd5b5f5f83601f840112611e7957611e78611c33565b5b8235905067ffffffffffffffff811115611e9657611e95611e60565b5b602083019150836001820283011115611eb257611eb1611cea565b5b9250929050565b5f5f60208385031215611ecf57611ece611b5c565b5b5f83013567ffffffffffffffff811115611eec57611eeb611b60565b5b611ef885828601611e64565b92509250509250929050565b611f0d81611dfc565b8114611f17575f5ffd5b50565b5f81359050611f2881611f04565b92915050565b5f5f60408385031215611f4457611f43611b5c565b5b5f611f5185828601611f1a565b9250506020611f6285828601611b86565b9150509250929050565b5f8115159050919050565b611f8081611f6c565b82525050565b5f602082019050611f995f830184611f77565b92915050565b611fa881611b64565b82525050565b5f602082019050611fc15f830184611f9f565b92915050565b5f81519050919050565b5f82825260208201905092915050565b8281835e5f83830152505050565b5f611ff982611fc7565b6120038185611fd1565b9350612013818560208601611fe1565b61201c81611c37565b840191505092915050565b5f60408201905061203a5f830185611f77565b818103602083015261204c8184611fef565b90509392505050565b5f6020828403121561206a57612069611b5c565b5b5f61207784828501611b86565b91505092915050565b5f81519050919050565b5f82825260208201905092915050565b5f819050602082019050919050565b5f6120b382611ddd565b9050919050565b6120c3816120a9565b82525050565b5f6120d483836120ba565b60208301905092915050565b5f602082019050919050565b5f6120f682612080565b612100818561208a565b935061210b8361209a565b805f5b8381101561213b57815161212288826120c9565b975061212d836120e0565b92505060018101905061210e565b5085935050505092915050565b5f6020820190508181035f83015261216081846120ec565b905092915050565b5f6020828403121561217d5761217c611b5c565b5b5f61218a84828501611f1a565b91505092915050565b7f4e487b71000000000000000000000000000000000000000000000000000000005f52601160045260245ffd5b5f6121ca82611b64565b91506121d583611b64565b9250828203905060ff8111156121ee576121ed612193565b5b92915050565b5f6121fe82611b9a565b915061220983611b9a565b925082820261221781611b9a565b9150828204841483151761222e5761222d612193565b5b5092915050565b5f8160011c9050919050565b5f5f8291508390505b600185111561228a5780860481111561226657612265612193565b5b60018516156122755780820291505b808102905061228385612235565b945061224a565b94509492505050565b5f826122a2576001905061235d565b816122af575f905061235d565b81600181146122c557600281146122cf576122fe565b600191505061235d565b60ff8411156122e1576122e0612193565b5b8360020a9150848211156122f8576122f7612193565b5b5061235d565b5060208310610133831016604e8410600b84101617156123335782820a90508381111561232e5761232d612193565b5b61235d565b6123408484846001612241565b9250905081840481111561235757612356612193565b5b81810290505b9392505050565b5f61236e82611b9a565b915061237983611b64565b92506123a67fffffffffffffffffffffffffffffffffffffffffffffffffffffffffffffffff8484612293565b905092915050565b5f6123b882611b9a565b91506123c383611b9a565b92508282019050808211156123db576123da612193565b5b92915050565b5f819050919050565b5f6124046123ff6123fa84611b64565b6123e1565b611b9a565b9050919050565b612414816123ea565b82525050565b5f60408201905061242d5f830185611c0b565b61243a602083018461240b565b9392505050565b5f6040820190506124545f830185611e0d565b6124616020830184611e0d565b9392505050565b5f82825260208201905092915050565b7f546f6f206561726c7900000000000000000000000000000000000000000000005f82015250565b5f6124ac600983612468565b91506124b782612478565b602082019050919050565b5f6020820190508181035f8301526124d9816124a0565b9050919050565b5f6124ea82611b9a565b91506124f583611b9a565b925082820390508181111561250d5761250c612193565b5b92915050565b7f4e487b71000000000000000000000000000000000000000000000000000000005f52601260045260245ffd5b5f61254a82611b9a565b915061255583611b9a565b92508261256557612564612513565b5b828204905092915050565b7f4e487b71000000000000000000000000000000000000000000000000000000005f52603260045260245ffd5b5f81549050919050565b5f82825260208201905092915050565b5f819050815f5260205f209050919050565b6125d281611dfc565b82525050565b5f6125e383836125c9565b60208301905092915050565b5f815f1c9050919050565b5f73ffffffffffffffffffffffffffffffffffffffff82169050919050565b5f61262b612626836125ef565b6125fa565b9050919050565b5f61263d8254612619565b9050919050565b5f600182019050919050565b5f61265a8261259d565b61266481856125a7565b935061266f836125b7565b805f5b838110156126a65761268382612632565b61268d88826125d8565b975061269883612644565b925050600181019050612672565b5085935050505092915050565b5f6040820190506126c65f830185611f9f565b81810360208301526126d88184612650565b90509392505050565b5f6126eb82611b64565b915060ff82036126fe576126fd612193565b5b600182019050919050565b5f819050919050565b61271b81612709565b82525050565b5f67ffffffffffffffff82169050919050565b61273d81612721565b82525050565b5f61ffff82169050919050565b61275981612743565b82525050565b5f63ffffffff82169050919050565b6127778161275f565b82525050565b5f60a0820190506127905f830188612712565b61279d6020830187612734565b6127aa6040830186612750565b6127b7606083018561276e565b6127c4608083018461276e565b9695505050505050565b5f815190506127dc81611ba3565b92915050565b5f602082840312156127f7576127f6611b5c565b5b5f612804848285016127ce565b91505092915050565b5f61281782611b9a565b915061282283611b9a565b92508261283257612831612513565b5b82820690509291505056fea2646970667358221220c1408be84b3e4894a3d72cc72242604acc760d3929c2dadee46550e26f44f35b64736f6c634300081e0033","linkReferences":{}},"methodIdentifiers":{"announceWinners()":"aae59cf6","checkUpkeep(bytes)":"6e04ff0d","enterGame(uint256)":"43d6582b","enteredGame(address)":"a7e7d019","getCroupier()":"aebcad87","getGuess(address,uint8)":"5d4453ba","getInterval()":"91ad27b4","getPlayersListOfRound(uint8)":"70686765","i_announceTime()":"7bf92204","i_croupier()":"365f2e20","i_startTime()":"16bc8977","moneyPoolForRound(uint8)":"765590d8","performUpkeep(bytes)":"4585e33b","rawFulfillRandomWords(uint256,uint256[])":"1fe543e3","requestIdForRound(uint256)":"62885f1c","s_roundStarted(uint8)":"f1905c6f","secretNumberIsReady(uint256)":"61a2b443","startRound(uint8)":"b790471b","submitGuess(uint8,uint256)":"09a17f8a","winnersForRound(uint8,uint256)":"2e4c3bb2"},"id":29}